:020000040000FA
:060000009FEF03F0120067
:020006000000F8
:0600080004EF04F01200F9
:02000E001200DE
:060018000CEF04F01200E1
:02001E000F6A67
:100020001E0E716E0401400E096F200E0A6F040E41
:100030000B6F880E086F0401200E0E6F040E0F6FF9
:10004000400E0C6F1200550EA76EAA0EA76EA68268
:1000500012000D6A2FD909E23BD90800F5500E6E47
:1000600022D90EC0EFFF0D2AF5D7F86A1200F00E64
:1000700004012217840EA66E0D6A1CD908E21ED94F
:100080000F0E0D140F0801E1DEDF0D2AF6D7120066
:10009000940EA66E0D6A0ED913E20D50146E156AF9
:1000A000060ED89014361536E804FBE1166A15BE24
:1000B0001668040122511424EAD8C5DF0D2AEBD7B3
:1000C000F86A1200A66A0D6AF5D809E222510D24D9
:1000D000A96EA680E8D8A8CFEFFF0D2AF5D71200A9
:1000E0000D6AE8D80DE222510D24A96EDCD8EF503C
:1000F000A86E040EA66EA7DFA6B2FED70D2AF1D712
:100100001200C40EA66E0D6AD5D804E2D7D89BDFC4
:100110000D2AFAD7F86A12007ED8060E015C03E3B6
:100120006D50020B01E076D00F0410E104010CBF0A
:100130000CD00401400E096F400E040108170401A1
:10014000087D880E040108130F6A64D0040108BFFB
:1001500061D00D6A04012051320A40E0CD0A32E03C
:10016000F80A2CE0020A26E0010A20E0070A1AE059
:10017000010A14E0030A0EE0070A0CE0060A01E097
:100180003AD00401140E226F0401010E236F040EF5
:100190000D6E32D05EDF050E0D262ED068DF010E0B
:1001A0000D6E2AD075DF010E0D6E26D08BDF050E89
:1001B0000D2622D095DF010E0D6E1ED0A2DF010E9E
:1001C0000D6E1AD06D96106A116A1006000E115A43
:1001D0001050111001E0F9D7FF000ED0030E0401FA
:1001E000215D02E1010E0D6E040E0401215D02E1AC
:1001F000010E0D6E01D000D0010E0F6E0D500AE001
:100200000DC00DF4400E04010C1704010C7D880E86
:1002100004010C1312001250131004E1200E126E90
:100220004E0E136E1206000E135A6DA208D0125015
:1002300013102CE18A708A50010B24E121D0015067
:10024000060A17E0050A13E0010A0FE0070A08E0B2
:10025000040A04E0010A18E18A9012D08A8012D0C0
:100260001250131013E18A700BD08A8009D08A9043
:1002700009D0125013100AE18A708A50010B02E073
:100280008A9212008A8212008A808A821200F36E99
:1002900023511520F46E24511620F86EF4CFF7FF89
:1002A000F3CFF6FF12000D50EA6A250FE96E040E37
:1002B000EA221200040121510D5C1200F4DFEFCF9D
:1002C00017F00D50146E04D817C0F5FF0C00120083
:0C02D000156A166A22510D2447EF01F058
:0402DC006C5035E14C
:1002E000040100513C0BE842E8420D082CE10401F6
:1002F000049F180E0401021924E1040E031921E1E0
:10030000100E026F040E036F00016A6B6A51146EC7
:10031000156A080E145C000E155813E26A51EA6A59
:10032000180FE96E040EEA22EF50E66E6A51EA6A8F
:10033000100FE96E040EEA22E552E750EF6E6A2BC9
:10034000E5D7AAEF01F0B2EF01F0040E6C5C01E119
:100350001ED81200056A066A0B6A0C6AB7EC02F036
:1003600019EF02F0020E055C0DE10401180E026F98
:10037000040E036F080E016F00BD02D0C80E05D039
:10038000880E03D088D88BD88C0E006F1200040E14
:10039000015C09E112C46EFF6E50000802E2050E16
:1003A00001D0030E016E050409E10AD8040104BD61
:1003B00002D0C80E01D0880E046F12004BEF02F07D
:1003C000080E0B5C000E0C5803E20BC06CF003D05F
:1003D0000001080E6C6F6CC005F400016C51146EC6
:1003E000156A14500B5E15500C5A180E096E040E47
:1003F0000A6E6C511DE002A207D007C0F6FF08C0CC
:10040000F7FF0800F55005D007C0E9FF08C0EAFF74
:10041000EF50E66E09C0E9FF0AC0EAFFE552E75077
:10042000EF6E072A000E0822092A0A226C07E1D77C
:1004300012006D98065005E132D8840E006F040159
:1004400018D0040110AF17D00B50165D0C5017597F
:1004500004E216C40BF017C40CF0B2DF010E056EF7
:100460001ED8800E006F0401180E066F040E076F71
:10047000C80E046F1200020E056E0401056BC80E53
:10048000046F0401080E016F180E026F040E036F53
:10049000C80E006F1200056A0401046B120004010B
:0E04A000080E016F100E026F040E036F1200A3
:0204AE00080E36
:1004B0006D6E6DBAFED7686A110E696E020E016E1E
:1004C00012006850040B09E06950040B06E06D92BD
:1004D000699468A402D06894FCD76850010B04E0CA
:1004E0006950010B01E024D86850100B0AE06950F4
:1004F000100B07E0698468986D82A19AA08A0300B6
:10050000A19A6850200B06E06950200B03E070B000
:100510007090689A030E015C01E209D06850080BE4
:1005200006E06950080B03E06EEC01F068961200DB
:10053000686A7B0E696E6E6A160E706E68A605D0CC
:10054000689600D000D00000F9D76D984BEC02F00F
:100550000401080E016F0401100E026F040E036FF8
:0E05600004018C0E006F036A030E016E120080
:02056E00040186
:100570001051600BE842E842E842E842E8420009D4
:1005800001E012001151080A2FE0010A2BE00F0AC6
:1005900008E0030A01E01200010E066E040E016E6F
:1005A0001200010E066E130506E1B60E076E060E6A
:1005B000086E120E11D0020E135D06E1C80E076E12
:1005C000060E086E200E08D0030E135D08E1E80E3B
:1005D000076E060E086E040E0B6E0C6A01D0066ADA
:1005E00002821200FEEF02F0010E066E030E076E8D
:1005F000000E086E0292010E0B6E1200010E066EC6
:1006000012C403F00401125103E1050E016E120041
:08061000060E016E0FEF00F071
:08061800060EF66E000EF76EEF
:10062000000EF86E00010900F550656F0900F550E5
:10063000666F03E1656701D03DD00900F550606F3A
:100640000900F550616F0900F550626F090009005B
:10065000F550E96E0900F550EA6E0900090009003D
:10066000F550636F0900F550646F09000900F6CF7B
:1006700067F0F7CF68F0F8CF69F060C0F6FF61C0AF
:10068000F7FF62C0F8FF0001635302E1645307E023
:100690000900F550EE6E6307F8E26407F9D767C00A
:1006A000F6FF68C0F7FF69C0F8FF00016507000E9C
:0606B000665BBFD71200DB
:0A06B6001201000200000008D80441
:1006C0000B00010000000001090220000101008070
:1006D000320904000002FFFFFF000705010240008D
:0C06E0000007058102400000040309042B
:0406EC00C150006E8B
:1006F0000F0EC11281A404D00050C16E00EF04F0AF
:100700008A6AFC0E936E126A136A140E6F6E57ECAF
:0E07100002F061EC02F08CEC00F0FBD712005E
:02071E00000ECB
:10072000F36E00EE00F0080E01D81200EA6002D06D
:0E073000EE6AFCD7F350E9601200EE6AFCD7C7
:02073E0013EEB8
:1007400000F023EE00F0F86A199C0CEC03F007ECC3
:0A07500000F076EC03F0FBD7120076
:020000040030CA
:0100000024DB
:010001000EF0
:010002003FBE
:010003001EDE
:010005008179
:010006008178
:010008000FE8
:01000900C036
:01000A000FE6
:01000B008074
:01000C000FE4
:01000D0040B2
:00000001FF
