:020000040000FA
:06000000EBEF03F012001B
:020006000000F8
:0600080004EF04F01200F9
:02000E001200DE
:060018000CEF04F01200E1
:02001E000F6A67
:100020001E0E716E0401400E096F200E0A6F040E41
:100030000B6F880E086F0401200E0E6F040E0F6FF9
:10004000400E0C6F1200550EA76EAA0EA76EA68268
:1000500012000D6A040121510D5C1CE2156A166A3A
:1000600022510D24F36E23511520F46E24511620D5
:10007000F86EF4CFF7FFF3CFF6FF0800F5500E6EE1
:100080000D50EA6A250FE96E040EEA220EC0EFFF5A
:100090000D2AE0D7F86A1200F00E04012217840E30
:1000A000A66E0D6A040121510D5C23E20D50EA6A2F
:1000B000250FE96E040EEA22EFCF17F00D50146EF3
:1000C000156A166A22510D24F36E23511520F46E21
:1000D00024511620F86EF4CFF7FFF3CFF6FF17C0C8
:1000E000F5FF0C000F0E0D140F0801E1ACDF0D2A17
:1000F000D9D71200940EA66E0D6A040121510D5C31
:100100001DE20D50146E156A060ED8901436153681
:10011000E804FBE1166A15BE166804012251142496
:10012000F36E23511520F46E24511620F86EF4CF8F
:10013000F7FFF3CFF6FF87DF0D2ADFD7F86A12004B
:10014000A66A0D6A040121510D5C0EE222510D24B4
:10015000A96EA6800D50EA6A250FE96E040EEA2208
:10016000A8CFEFFF0D2AEED712000D6A040121512E
:100170000D5C12E222510D24A96E0D50EA6A250F82
:10018000E96E040EEA22EF50A86E040EA66E5BDF45
:10019000A6B2FED70D2AEAD71200C40EA66E0D6ACB
:1001A000040121510D5C1FE20D50EA6A250FE96E32
:1001B000040EEA22EFCF17F00D50146E156A166A7E
:1001C00022510D24F36E23511520F46E2451162074
:1001D000F86EF4CFF7FFF3CFF6FF17C0F5FF0C0072
:1001E00032DF0D2ADDD7F86A12007ED8060E015CD8
:1001F00003E36D50020B01E076D00F0410E104011F
:100200000CBF0CD00401400E096F400E040108170A
:100210000401087D880E040108130F6A64D00401EC
:1002200008BF61D00D6A04012051320A40E0CD0AB6
:1002300032E0F80A2CE0020A26E0010A20E0070A70
:100240001AE0010A14E0030A0EE0070A0CE0060AAD
:1002500001E03AD00401140E226F0401010E236F55
:10026000040E0D6E32D0F5DE050E0D262ED014DFF5
:10027000010E0D6E2AD03EDF010E0D6E26D060DF1E
:10028000050E0D2622D071DF010E0D6E1ED085DF0A
:10029000010E0D6E1AD06D96106A116A1006000ECE
:1002A000115A1050111001E0F9D7FF000ED0030EC3
:1002B0000401215D02E1010E0D6E040E0401215DB9
:1002C00002E1010E0D6E01D000D0010E0F6E0D5037
:1002D0000AE00DC00DF4400E04010C1704010C7D62
:1002E000880E04010C1312001250131004E1200EAA
:1002F000126E4E0E136E1206000E135A6DA208D027
:10030000125013102CE18B708B50010B24E121D083
:100310000150060A17E0050A13E0010A0FE0070A78
:1003200008E0040A04E0010A18E18B9012D08B80E7
:1003300012D01250131013E18B700BD08B8009D0A8
:100340008B9009D0125013100AE18B708B50010B67
:1003500002E08B9212008B8212008B808B82120043
:100360006C5035E1040100513C0BE842E8420D08B5
:100370002CE10401049F180E0401021924E1040E6B
:10038000031921E1100E026F040E036F00016A6B66
:100390006A51146E156A080E145C000E155813E2AB
:1003A0006A51EA6A180FE96E040EEA22EF50E66E0F
:1003B0006A51EA6A100FE96E040EEA22E552E7502C
:1003C000EF6E6A2BE5D7ECEF01F0F4EF01F0040ECD
:1003D0006C5C01E124D81200056A066A0B6A0C6A9B
:1003E00003EC03F061EF02F0020E055C0DE1040185
:1003F000180E026F040E036F080E016F00BD02D0CD
:10040000C80E0BD0880E09D09AD80401080E016FCF
:10041000100E026F040E036F8C0E006F1200040E9C
:10042000015C09E112C46EFF6E50000802E2050E85
:1004300001D0030E016E050409E10AD8040104BDD0
:1004400002D0C80E01D0880E046F12009FEF02F098
:10045000080E0B5C000E0C5803E20BC06CF003D0CE
:100460000001080E6C6F6CC005F400016C51146E35
:10047000156A14500B5E15500C5A180E096E040EB6
:100480000A6E6C511DE002A207D007C0F6FF08C03B
:10049000F7FF0800F55005D007C0E9FF08C0EAFFE4
:1004A000EF50E66E09C0E9FF0AC0EAFFE552E750E7
:1004B000EF6E072A000E0822092A0A226C07E1D7EC
:1004C00012006D9806500BE10401080E016F100E2A
:1004D000026F040E036F840E006F04011ED004012E
:1004E00010AF1DD00B50165D0C50175904E216C406
:1004F0000BF017C40CF0ACDF010E056E0401080E02
:10050000016F100E026F040E036F800E006F040166
:10051000180E066F040E076FC80E046F1200020E4D
:10052000056E0401056BC80E046F0401080E016F0F
:10053000180E026F040E036FC80E006F1200056ADA
:060540000401046B12002F
:0A054600080E6D6E6DBAFED7686AEC
:10055000110E696E020E016E12006850040B09E064
:100560006950040B06E06D92699468A402D0689407
:10057000FCD76850010B04E06950010B01E024D85E
:100580006850100B0AE06950100B07E06984689806
:100590006D82A19AA08A0300A19A6850200B06E000
:1005A0006950200B03E070B07090689A030E015CF4
:1005B00001E209D06850080B06E06950080B03E01F
:1005C000B0EC01F068961200686A7B0E696E6E6A84
:1005D000160E706E68A605D0689600D000D0000098
:1005E000F9D76D989FEC02F00401080E016F040129
:1005F000100E026F040E036F04018C0E006F036A6D
:06060000030E016E120062
:0A06060004011051600BE842E842C5
:10061000E842E842E842000901E012001151080AEC
:100620002FE0010A2BE00F0A08E0030A01E01200A4
:10063000010E066E040E016E1200010E066E130509
:1006400006E14E0E076E070E086E120E11D0020E56
:10065000135D06E1600E076E070E086E200E08D0CF
:10066000030E135D08E1800E076E070E086E040E80
:100670000B6E0C6A01D0066A028212004AEF03F088
:10068000010E066E030E076E000E086E0292010E3A
:100690000B6E1200010E066E12C403F0040112511B
:1006A00003E1050E016E1200060E016E0FEF00F061
:1006B000060EF66E000EF76E000EF86E00010900D1
:1006C000F550656F0900F550666F03E1656701D06D
:1006D0003DD00900F550606F0900F550616F0900C9
:1006E000F550626F09000900F550E96E0900F550F8
:1006F000EA6E090009000900F550636F0900F55022
:10070000646F09000900F6CF67F0F7CF68F0F8CF03
:1007100069F060C0F6FF61C0F7FF62C0F8FF00013A
:10072000635302E1645307E00900F550EE6E63077E
:10073000F8E26407F9D767C0F6FF68C0F7FF69C041
:0E074000F8FF00016507000E665BBFD71200D0
:02074E00120196
:10075000000200000008D8040B00010000000001A6
:100760000902200001010080320904000002FFFF9D
:10077000FF0007050102400000070581024000005C
:040780000403090461
:0C078400C150006E0F0EC11282A404D000
:100790000050C16E00EF04F08B6AFC0E946E126A7A
:1007A000136A140E6F6EA3EC02F0ADEC02F0F5ECE0
:0607B00000F0FBD712006F
:0A07B600000EF36E00EE00F0080ED6
:1007C00001D81200EA6002D0EE6AFCD7F350E9606B
:0607D0001200EE6AFCD7E6
:0A07D60013EE00F023EE00F0F86AC5
:1007E000199C58EC03F007EC00F0C2EC03F0FBD7C7
:0207F0001200F5
:020000040030CA
:01000000E51A
:010001003EC0
:01000200FFFE
:01000300FEFE
:01000500F901
:010006009B5E
:01000800FFF8
:01000900FFF7
:01000A00FFF6
:01000B009F55
:01000C00FFF4
:01000D00FFF3
:00000001FF
