:020000040000FA
:0600000040EF12F01200B7
:0600080004EF04F01200F9
:060018000CEF04F01200E1
:0608000040EF12F01200AF
:060808009CEF0FF012004E
:06081800E7EF0FF01200F3
:06082A000100B4240000EF
:08083000FE00000002000000C0
:08083800D9CFE6FFE1CFD9FFA3
:10084000E652A09A6A6A686A706A030EE66EE66A01
:10085000E66A710EE66E0F0EE66E16EC12F00B6E87
:10086000050EE15E0B50160E6F6E9F0E6B6E7B0ECB
:10087000696EDF6ADF500B6E0C6A100E0B5C000EA7
:100880000C5810E2DF50040DF3CFE9FFF4CFEAFF7C
:10089000000EE926040EEA22EE6AEE6AEE6AEE6ABD
:1008A000DF2AE8D76D8C6E6A6D986D9C68A607D0BC
:1008B000689601011B6B206B216B226BF7D701013E
:1008C000010E366F376F386B396B286BDF6A040E99
:1008D000DF5C26E2EA6ADF34FE0BEA36E96E0F0ED1
:1008E000E926010EEA22EE6AED6AEA6ADF34FE0BBF
:1008F000EA36E96E070EE926010EEA22EE6AED6A93
:10090000DF50EA6A2C0FE96E010EEA22EF6ADF502F
:10091000EA6A300FE96E010EEA22EF6ADF2AD7D7C2
:100920000101080E0F6F040E106F160E706E040199
:10093000400E026F040E036F080E016F840E006FED
:100940000101016B006BE552E552E7CFD9FF1200C0
:10095000D9CFE6FFE1CFD9FFE6520101000507E15B
:100960006DBA05D0686A69806988020E006F6850A8
:10097000040B05E06950040B02E06894C4D86DA232
:1009800002D0A19A8DD06850010B09E06950010B8B
:1009900006E052DFA08A0101040E006F68906850E3
:1009A000100B05E06950100B02E098D8689868AC0D
:1009B00012D069AC0FD0010EE66EE66A000EE66E4C
:1009C000E66A730EE66EE66A17EC11F00B6E060E21
:1009D000E15E0B50689C6850200B04E06950200BCE
:1009E00001E063D86850020B13E06950020B10E07D
:1009F000010EE66EE66A000EE66EE66AE6687F0EB7
:100A0000E66E17EC11F00B6E060EE15E0B506A6A93
:100A1000040E0101E76E0019E8AE02D0E73402D0FF
:100A2000E750005D02E2A19A3BD069A638D0DF6AA8
:100A3000040EDF5C34E268A631D06CCF29F10101ED
:100A40002951780BE842E842E8422A6F689629B5B6
:100A500008D02A51EA6A300FE96E010EEA22EF70DF
:100A600007D02A51EA6A2C0FE96E010EEA22EF70D4
:100A70002A5102E15FD810D0000EE66EE66A290E18
:100A8000E66E010EE66E720EE66EE66A17EC11F087
:100A90000B6E060EE15E0B50DF2ACAD700D0A19A7A
:100AA000E552E552E7CFD9FF120070A015D003C17F
:100AB000E9FF04C1EAFFEF5080080DE10FC1E9FF33
:100AC00010C1EAFFEF50840806E103C1E9FF04C149
:100AD000EAFF8C0EEF6E7090689A12006984689835
:100AE0006D820101010E286F000EE66EE66AE66E69
:100AF000E66A750EE66EE66A17EC11F00B6E060EEE
:100B0000E15E0B5012000101286B000EE66EE66AF2
:100B1000E66EE66A740EE66EE66A17EC11F00B6E8E
:100B2000060EE15E0B506D92699468A402D0689441
:100B3000FCD71200D9CFE6FFE1CFD9FFE652FD0E78
:100B40000101291553E17E0E2915E8407F0B040DA4
:100B5000F3CF03F1F4CF04F1000E0327040E0423B6
:100B600003C105F104C106F1057503C1E9FF04C124
:100B7000EAFFEF503C0BE842E8420D0835E1DF6A3E
:100B8000080EDF5C23E203C1E9FF04C1EAFF020EA5
:100B9000E926000EEA22EE50EFCFEAFFE96EEF50B1
:100BA000E66EDF50EA6A400FE96E040EEA22E55273
:100BB000E750EF6E03C1E9FF04C1EAFF020EE92628
:100BC000000EEA22EE2AEF22DF2ADAD703C1E9FF7C
:100BD00004C1EAFF020EE926000EEA22400EEE6E84
:100BE000040EED6E0DD801D03AD805D0FD0E2915B2
:100BF000040801E15AD8E552E552E7CFD9FF1200C7
:100C00000101176B356B386B396B2B6B186B0FC190
:100C1000E9FF10C1EAFFEF9E0F750FC1E9FF10C198
:100C2000EAFFEF9E0F7505C1E9FF06C1EAFFEF9EDF
:100C30001B6B1C6B1D6B206B216B226B90D8000E05
:100C4000E66EE66AE66EE66A030EE66EE66A17ECA4
:100C500011F00B6E060EE15E0B509FEF09F0020ED5
:100C60000101185D03E162EC0AF01ED0186B2B51F4
:100C70001AE105C1E9FF06C1EAFFEE52080EEF6E68
:100C800005C1E9FF06C1EAFF020EE926000EEA22CD
:100C9000400EEE6E040EED6E05C1E9FF06C1EAFFDF
:100CA0008C0EEF6E01D02B6B1200D9CFE6FFE1CF97
:100CB000D9FFE6520FC1E9FF10C1EAFFEF50400B28
:100CC00001E0010EDF6E01010F75080E005D09E104
:100CD00042C46EFF6E5003E0100E006F02D0040E8F
:100CE000006F180528E10FC1E9FF10C1EAFF020EED
:100CF000E926000EEA22480EEE6E040EED6E80DB51
:100D0000020E0101175D07E10FC1E9FF10C1EAFF03
:100D1000840EEF6E0FD0DF5007E10FC1E9FF10C165
:100D2000EAFFC80EEF6E06D00FC1E9FF10C1EAFF5F
:100D3000880EEF6E0FD020AF0CD02351241107E0A6
:100D400005D024C1FAFF01012351F96EFADF010138
:100D5000209F186BE552E552E7CFD9FF120004013E
:100D60004051600BE842E842E842E842E8420009AC
:100D700001E059D041510C0A55E00B0A44E00C0A3D
:100D800036E0010A27E00B0A23E0020A21E0030A09
:100D90001DE0080A11E0010A0CE00F0A08E0030A4E
:100DA00001E040D001011B8F080E006F3CD006DA35
:100DB0003AD002EC0BF037D00101010E196F010E91
:100DC0001A6F1B81010E1C6F1B8F2DD057DA2BD091
:100DD0002BD829D044510101196F1A6B020E192723
:100DE000010E1A231B81010E1C6F1B8F1CD00101E9
:100DF0001B8F04014451EA6A020FE96E010EEA22D8
:100E000042C4EFFF10D0000EE66EE66AE66EE66AB8
:100E1000020EE66EE66A17EC11F00B6E060EE15E4E
:100E20000B5001D000D01200D9CFE6FFE1CFD9FF9F
:100E3000030EE1260401420510E140511F0B000999
:100E40000CE101011B8F030E0401415D04E101016E
:100E5000010E276F02D00101276B0401425101E00E
:100E600012D140511F0B020801E00DD144510F0B6C
:100E7000000901E108D144510F0B030801E203D13D
:100E8000200E0101005D01E0FED01B8F040144BF74
:100E90001AD044510F0BE96EEA6AD890E936EA3667
:100EA000070EE926010EEA22EECFDEFFEDCFDDFFD1
:100EB00044510F0BEA6A300FE96E010EEA22020E6E
:100EC000EFCFDBFF19D044510F0BE96EEA6AD890DF
:100ED000E936EA360F0EE926010EEA22EECFDEFFF2
:100EE000EDCFDDFF44510F0BEA6A2C0FE96E010EC6
:100EF000EA22020EEFCFDBFFD950020FE96EDACF04
:100F0000EAFFEF50010B03E1000EDF9401D0DF8414
:100F100044BF10D044510F0BE96EEA6AD890E9360D
:100F2000EA36070EE926010EEA22DECFEEFFDDCF1C
:100F3000EDFF0FD044510F0BE96EEA6AD890E93605
:100F4000EA360F0EE926010EEA22DECFEEFFDDCFF4
:100F5000EDFF030E415D23E1DECFE9FFDDCFEAFFC8
:100F6000EF50800B13E044BF09D044510F0BEA6AE5
:100F7000300FE96E010EEA22EF8208D044510F0BC8
:100F8000EA6A2C0FE96E010EEA22EF82840E0B6EE4
:100F9000DECFE9FFDDCFEAFF0B50EF1274D0DF7434
:100FA000DECFE9FFDDCFEAFFEF50800B1BE0DECFA5
:100FB000E9FFDDCFEAFFEF9EDECFE9FFDDCFEAFFFD
:100FC000EF8C020EE66EE66ADECFE6FFDDCFE6FFCF
:100FD000050EE66EE66A17EC11F00B6E060EE15E8A
:100FE0000B5005D0DECFE9FFDDCFEAFFEF8CDF74D9
:100FF000D950020FE96EDACFEAFFEF50020B0EE193
:10100000DECFE9FFDDCFEAFFEF50800B34E0DECF2B
:10101000E9FFDDCFEAFFEF50040B2DE1040144BFEF
:1010200009D044510F0BEA6A300FE96E010EEA2233
:10103000EF9208D044510F0BEA6A2C0FE96E010EB3
:10104000EA22EF923B0E0B6EDECFE9FFDDCFEAFF27
:101050000B50EF16020EE66EE66ADECFE6FFDDCF3E
:10106000E6FF050EE66EE66A17EC11F00B6E060E53
:10107000E15E0B5008D03B0E0B6EDECFE9FFDDCFFB
:10108000EAFF0B50EF16030EE15C02E2E16AE55263
:10109000E16EE552E7CFD9FF1200010136514DE173
:1010A000010E366F375149E1010E376F020E185DA0
:1010B0000DE10FC1E9FF10C1EAFFEE52EF6A0FC167
:1010C000E9FF10C1EAFFC80EEF6E37D0180535E111
:1010D0002B6B03C1E9FF04C1EAFFEE52080EEF6E6D
:1010E00003C1E9FF04C1EAFF020EE926000EEA226D
:1010F000400EEE6E040EED6E03C1E9FF04C1EAFF7F
:10110000840EEF6E010E2B6F05C1E9FF06C1EAFFE9
:10111000EE52080EEF6E05C1E9FF06C1EAFF020EAE
:10112000E926000EEA22400EEE6E040EED6E05C1B9
:10113000E9FF06C1EAFF800EEF6E12000101386B75
:10114000396B020E185D1AE105C1E9FF06C1EAFF1D
:10115000EE52080EEF6E05C1E9FF06C1EAFF020E6E
:10116000E926000EEA22480EEE6E040EED6E05C171
:10117000E9FF06C1EAFFC80EEF6E1FD01C51040143
:10118000465D01011D510401475904E246C41CF1AA
:1011900047C41DF135D90FC1E9FF10C1EAFF020EA6
:1011A000E926000EEA22480EEE6E040EED6E0FC127
:1011B000E9FF10C1EAFFC80EEF6E1200800E0401B5
:1011C000405D5BE10101C00E1B6F04014351030A46
:1011D00034E0010A0EE0030A03E001011B6B4DD06D
:1011E0000101C40E196F220E1A6F120E1C6F1D6BB7
:1011F00044D04251F66EF76AD890F636F736850E2F
:10120000F626230EF7220900F5CF19F10A00F5CFD3
:101210001AF1020E0101F76A1925F66E1A51F7222A
:101220000800F5CF1CF1030EF76A1925F66E1A5166
:10123000F7220800F5CF1DF120D0030E425D1AE21F
:101240004251F66EF76AD890F636F736870EF626D4
:10125000230EF7220900F5CF19F10A00F5CF1AF194
:1012600019C1F6FF1AC1F7FF0800F55001011C6F04
:101270001D6B02D001011B6B00D01200D9CFE6FF1D
:10128000E1CFD9FF020EE1260401486B496B4051C2
:101290001F0B020A12E0030A0DE0010A01E03BD035
:1012A00001011B8F040148810101270502E10401AE
:1012B000488331D001011B8F2ED001011B8F040107
:1012C00044BF10D044510F0BE96EEA6AD890E9365A
:1012D000EA36070EE926010EEA22EECFDEFFEDCF59
:1012E000DDFF0FD044510F0BE96EEA6AD890E93662
:1012F000EA360F0EE926010EEA22EECFDEFFEDCF31
:10130000DDFFDECFE9FFDDCFEAFFEF50040B02E0A7
:10131000010E486F00D001011BAF07D0480E196FB6
:10132000040E1A6F1B81020E1C6F020EE15C02E2BA
:10133000E16AE552E16EE552E7CFD9FF12006D9800
:1013400001011BBF2BD020AF09D0020E186F3951FD
:1013500001E1F4DE0101376B366B1FD005C1E9FFF7
:1013600006C1EAFFEE52080EEF6E05C1E9FF06C1A5
:10137000EAFF020EE926000EEA22400EEE6E040E8F
:10138000ED6E05C1E9FF06C1EAFF8C0EEF6E0FC1DD
:10139000E9FF10C1EAFF840EEF6E31D0040140AFC7
:1013A0000DD00101010E186F385101E1C7DE0101B6
:1013B000376B366B355101E170DE21D00101020E31
:1013C000186F05C1E9FF06C1EAFFEE52080EEF6E85
:1013D00005C1E9FF06C1EAFF020EE926000EEA2276
:1013E000400EEE6E040EED6E05C1E9FF06C1EAFF88
:1013F000840EEF6E376B366B355101E14EDE120015
:10140000D9CFE6FFE1CFD9FFE652080EDF6E01012A
:101410001C5D000E1D590BE21CC1DFFF175103E1DB
:10142000010E176F04D0170502E1020E176FDF508F
:101430000B6E0C6A0B501C5D1C6F0C501D591D6F00
:101440000FC1E9FF10C1EAFFEE52DFCFEFFF480EF8
:10145000256F040E266F1BB119D0DF5016E019C19D
:10146000F6FF1AC1F7FF192B000E1A230800F550DA
:10147000E66E25C1E9FF26C1EAFF252B000E2623D3
:10148000E552E750EF6EDF06E8D717D0DF5015E0E2
:1014900019C1E9FF1AC1EAFF192B000E1A23EF50F8
:1014A000E66E25C1E9FF26C1EAFF252B000E2623A3
:1014B000E552E750EF6EDF06E9D7E552E552E7CF98
:1014C000D9FF1200D9CFE6FFE1CFD9FF020EE12606
:1014D00003C1E9FF04C1EAFFEE52EFCFDFFFDFCF28
:1014E0000BF00B500101215D000E225902E221C1D7
:1014F000DFFFDF500B6E0C6A0B50215D216F0C502B
:101500002259226F010EDB6ADF50F36E010EDBCF32
:10151000F4FFF350F45C16E2010EDB50EA6A480F68
:10152000E96E040EEA22EF50E66E1EC1E9FF1FC10C
:10153000EAFF1E2B000E1F23E552E750EF6E010E4F
:10154000DB2AE2D7000ED8802155000E225528E272
:1015500005C1E9FF06C1EAFFEE52080EEF6E05C1B4
:10156000E9FF06C1EAFF020EE926000EEA22480E54
:10157000EE6E040EED6E03C1E9FF04C1EAFFEF5009
:10158000400B07E105C1E9FF06C1EAFFC80EEF6E97
:1015900006D005C1E9FF06C1EAFF880EEF6E28D02C
:1015A00005C1E9FF06C1EAFFEE52080EEF6E05C164
:1015B000E9FF06C1EAFF020EE926000EEA22400E0C
:1015C000EE6E040EED6E05C1E9FF06C1EAFF840E62
:1015D000EF6E2351241107E005D024C1FAFF010169
:1015E0002351F96EFADF0101209F355101E155DDEC
:1015F000020EE15C02E2E16AE552E16EE552E7CFFC
:10160000D9FF1200D9CFE6FFE1CFD9FFE6520101A1
:101610001B8F030EE66EE66AE66A710EE66E0F0E2B
:10162000E66E16EC12F00B6E050EE15E0B50DF6AF3
:10163000DF500B6E0C6A100E0B5C000E0C5810E2A3
:10164000DF50040DF3CFE9FFF4CFEAFF000EE926E7
:10165000040EEA22EE6AEE6AEE6AEE6ADF2AE8D744
:101660006D8C010EE66EE66AE66A020EE66E010E0B
:10167000E66E16EC12F00B6E050EE15E0B506D9CE3
:101680000101080E0F6F040E106F000E036F040EA1
:10169000046F03C105F104C106F142C401F1015117
:1016A00003E1100E006F13D0010EE66EE66A010E24
:1016B000E66E010EE66E010EE66EE66A17EC11F0BC
:1016C0000B6E060EE15E0B500101200E006FE5521D
:1016D000E552E7CFD9FF1200D9CFE6FFE1CFD9FF1E
:1016E000020EE126000EDE6E040EDD6EFD0EDB50F6
:1016F000E8240D6EFE0EDB50040DF3500D24040D96
:10170000F3CF0BF0F4CF0CF0D9CFE9FFDACFEAFF3B
:101710000B50EE260C50ED22DECFE9FFDDCFEAFFC5
:10172000EF9EFD0EDB500FE1FE0EEA6ADB34FE0B8E
:10173000EA36E96E070EE926010EEA22DECFEEFF59
:10174000DDCFEDFF0ED0FE0EEA6ADB34FE0BEA368B
:10175000E96E0F0EE926010EEA22DECFEEFFDDCFA5
:10176000EDFFDECFE9FFDDCFEAFFEF9CDECFE9FF43
:10177000DDCFEAFF040EE926000EEA22EF8C020E0E
:10178000E15C02E2E16AE552E16EE552E7CFD9FFA2
:101790001200D9CFE6FFE1CFD9FF020EE126FD0E00
:1017A000DBA407D0E66AFE0EDBCFE6FF95DFE5524D
:1017B000E552FD0EDBA208D0010EE66EFE0EDBCF79
:1017C000E6FF8ADFE552E552FE0EDB500C6A700F31
:1017D0000B6E0F0E0C220BC0DEFF0CC0DDFFDECF48
:1017E000E9FFDDCFEAFFFD0EDBCFEFFF020EE15C8C
:1017F00002E2E16AE552E16EE552E7CFD9FF12005D
:10180000D9CFE6FFE1CFD9FF020EE126FE0EDB5075
:1018100020E105C1E9FF06C1EAFFEE52080EEF6EB6
:1018200005C1E9FF06C1EAFF020EE926000EEA2221
:10183000400EEE6E040EED6E05C1E9FF06C1EAFF33
:101840008C0EEF6E0FC1E9FF10C1EAFF840EEF6E40
:101850003DD0FD0EDB50E8240D6EFE0EDB50040D76
:10186000F3500D24040DF3CF0BF0F4CF0CF0000E69
:101870000B26040E0C220BC0DEFF0CC0DDFF840E15
:101880000B6EDECFE9FFDDCFEAFF0B50EF12FD0E4E
:10189000DB50E8240D6EFE0EDB50040DF3500D24DA
:1018A000010F040DF3CF0BF0F4CF0CF0000E0B265C
:1018B000040E0C220BC0DEFF0CC0DDFF840E0B6E8D
:1018C000DECFE9FFDDCFEAFF0B50EF12020EE15C45
:1018D00002E2E16AE552E16EE552E7CFD9FF12007C
:1018E000D9CFE6FFE1CFD9FF020EE126FD0EDB5096
:1018F0000FE0FE0EEA6ADB34FE0BEA36E96E0F0EED
:10190000E926010EEA22EECFDEFFEDCFDDFF0ED09D
:10191000FE0EEA6ADB34FE0BEA36E96E070EE926B4
:10192000010EEA22EECFDEFFEDCFDDFFD9CFE9FFDA
:10193000DACFEAFFEE50ED1003E1F36AF46A49D022
:10194000DECFE9FFDDCFEAFF020EE926000EEA2234
:10195000FB0EDBCFEEFFFC0EDBCFEDFFDECFE9FFB2
:10196000DDCFEAFFEE52FA0EDBCFEFFF400E0B6E3B
:10197000DECFE9FFDDCFEAFF0B50EF16880E0B6ECE
:10198000DECFE9FFDDCFEAFF0B50EF12FD0EDB509B
:101990000CE0FE0EEA6ADB34FE0BEA36E96E0F0E4F
:1019A000E926010EEA22EF740BD0FE0EEA6ADB3460
:1019B000FE0BEA36E96E070EE926010EEA22EF7405
:1019C000DECF0BF0DDCF0CF00BC0F3FF0CC0F4FF4B
:1019D00000D0020EE15C02E2E16AE552E16EE552FE
:1019E000E7CFD9FF1200D9CFE6FFE1CFD9FF6DA82D
:1019F0004ED0FE0EEA6ADB34FE0BEA36E96E0F0EBD
:101A0000E926010EEA22EE50EFCFEAFFE96E400E22
:101A1000EE16EE6AEE6AEE6AFE0EEA6ADB34FE0B42
:101A2000EA36E96E0F0EE926010EEA22EE50EFCFFC
:101A3000EAFFE96EEE7CFE0EEA6ADB34FE0BEA3664
:101A4000E96E0F0EE926010EEA22EF74400E0B6ECE
:101A5000FE0EEA6ADB34FE0BEA36E96E0F0EE9266B
:101A6000010EEA22EE50EFCFEAFFE96E0B50EF16BF
:101A7000FE0EEA6ADB34FE0BEA36E96E0F0EE9264B
:101A8000010EEA22EE50EFCFEAFFE96EEF7CE5525D
:101A9000E7CFD9FF12006D6A696A0101006B00D0BF
:101AA00012000101005113E16D6A696A160E6F6E32
:101AB0009F0E6B6E7B0E696ED08EA28AA08AF28E0C
:101AC0006DB602D06D86FCD70101010E006F1200C9
:101AD000040140511F0B010801E04AD04051600B46
:101AE000E842E842E842E842E842010801E040D02A
:101AF000445103E0440501E03BD04151220A33E068
:101B0000030A26E0010A17E0210A0EE0010A01E0BB
:101B10002FD00101F60E196F000E1A6F080E1C6F00
:101B20001D6B1B811B8F24D00101F60E196F000E57
:101B30001A6F1B8F1DD046C421F147C422F1010149
:101B4000880E1E6F050E1F6F236B246B208F10D025
:101B50000101880E196F050E1A6F070E1C6F1D6BA1
:101B6000C10E1B6F05D042C4F1F001011B8F00D0E4
:101B700012000501886B4B0E896F8A6B8B6B8C6B27
:101B80008D6B080E8E6F0001E56B1A0EE66E020E6D
:101B9000E66EC9EC0BF0E552E5521E0EE66E030E42
:101BA000E66EC9EC0BF0E552E552400EE66E080E0B
:101BB000E66E050EE66EE66A030EE66E70EC0CF05D
:101BC0000B6E050EE15E0B50F3CFEDF0F4CFEEF0AF
:101BD0000001EF6BF06BE66B1200D9CFE6FFE1CFAF
:101BE000D9FF0001E56BED51EE1102E1000E08D0C6
:101BF000EDC0E9FFEEC0EAFFEF50800B01E0010EFF
:101C0000000945E1FC0EDBCF0BF0EDC0E9FFEEC0B3
:101C1000EAFFEE52EF50D8800B5408E2EDC0E9FF26
:101C2000EEC0EAFFEE52FC0EEFCFDBFFE56BFC0EE1
:101C3000DB50E55D19E2E551EA6A080FE96E050E31
:101C4000EA22EF50E66EE551E76EFD0EDBCFE9FFCD
:101C5000FE0EDBCFEAFFE750E926000EEA22E5524E
:101C6000E750EF6EE52BE3D7400EE66E080EE66E0A
:101C7000050EE66EE66A030EE66E70EC0CF00B6E77
:101C8000050EE15E0B50F3CFEDF0F4CFEEF0000166
:101C9000E55100D0E552E7CFD9FF1200D9CFE6FFDA
:101CA000E1CFD9FFA09A0001E6510CE1FD0EDBCF98
:101CB000E7F0FE0EDBCFE8F0FC0EDBCFEBF0010E21
:101CC000EC6FE66FA08AE552E7CFD9FF1200D9CFBB
:101CD000E6FFE1CFD9FF030EE126A09A0001E6510D
:101CE00002E0A08A2FD0DF6AFD0EDBCF06F0FE0EE9
:101CF000DBCF07F0DE5206C0DEFF07C0DDFFDD529E
:101D0000DF2ADF500B6E0C6AFF0E0B1801E10C503E
:101D100001E10BD0010EDBCFE9FFDB2A020EDBCFA6
:101D2000EAFF01E3DB2AEF50EBE1FD0EDBCFE7F04A
:101D3000FE0EDBCFE8F0DFCFEBF00001010EEC6F21
:101D4000E66FA08A030EE15C02E2E16AE552E16E11
:101D5000E552E7CFD9FF1200D9CFE6FFE1CFD9FF97
:101D6000030EE126A09A0001E65102E0A08A30D0DD
:101D7000DF6AFD0EDBCF06F0FE0EDBCF07F0DE5292
:101D800006C0DEFF07C0DDFFDD52DF2ADF500B6E2D
:101D90000C6AFF0E0B1801E10C5001E10CD0010E92
:101DA000DBCFF6FFDB2A020EDBCFF7FF01E3DB2AF6
:101DB0000800F550EAE1FD0EDBCFE7F0FE0EDBCFC9
:101DC000E8F0DFCFEBF00001EC6B010EE66FA08ACC
:101DD000030EE15C02E2E16AE552E16EE552E7CF13
:101DE000D9FF1200D9CFE6FFE1CFD9FF020EE126DD
:101DF000A09A0001EF51F01102E1000E08D0EFC0EF
:101E0000E9FFF0C0EAFFEF50800B01E0010E00098E
:101E100002E0A08A87D0030EE65D01E1E66BE651A1
:101E200002E1A08A7FD0020EE65D16E1E66A000EAE
:101E3000E66EE66A010EE66E030EE66E70EC0CF0DE
:101E40000B6E050EE15E0B50F3CFEFF0F4CFF0F028
:101E50000001030EE66F65D0E60563E1400E0B6EF0
:101E60000C6AEB510B5C000E0C5803E2400EDF6E67
:101E700002D0EBC0DFFFDF50EB5DEB6F480EE96F88
:101E8000050EEA6F010EDFCFDBFFEC5117E1010E0B
:101E9000DB5013E0E7C0F6FFE8C0F7FF0800F5509D
:101EA000E9C0E9FFEAC0EAFFEF6EE92B000EEA2382
:101EB000E72BE823010EDB06EAD715D0010EDB5035
:101EC00012E0E7C0E9FFE8C0EAFFEF50E9C0E9FF30
:101ED000EAC0EAFFEF6EE92B000EEA23E72BE823C6
:101EE000010EDB06EBD7EB5108E1400EDF5C03E1AE
:101EF000020EE66F02D0030EE66FDFCFE6FF480E5C
:101F0000E66E050EE66E010EE66E030EE66E70ECF2
:101F10000CF00B6E050EE15E0B50F3CFEFF0F4CF3B
:101F2000F0F0A08A020EE15C02E2E16AE552E16EA5
:081F3000E552E7CFD9FF1200D2
:081F3800DACFE4FFE2CFDAFF8B
:101F4000E9CFE4FFEACFE4FFF6CFE4FFF7CFE4FF09
:101F5000F5CFE4FFF3CFE4FFF4CFE4FFFACFE4FFE3
:101F600000EE00F00B0EE80403E3EECFE4FFFBD736
:101F700000EE0BF0030EE80403E3EECFE4FFFBD723
:101F8000E652A8EC04F0E55200EE0DF0030EE80472
:101F900003E3E5CFEDFFFBD700EE0AF00B0EE804FC
:101FA00003E3E5CFEDFFFBD7E5CFFAFFE5CFF4FF85
:101FB000E5CFF3FFE5CFF5FFE5CFF7FFE5CFF6FF80
:101FC000E5CFEAFFE5CFE9FFE5CFDAFF1100D8CF93
:101FD000E4FFE0CFE4FFE46EDACFE4FFE2CFDAFF24
:101FE000E652E552E5CFDAFFE550E5CFE0FFE5CF79
:101FF000D8FF100005D851EC0DF011D8FED7120013
:102000000F0EC11202D81CEF04F00001E26BE16B6D
:10201000010EE06FFC0E8B16941694841200D9CF3B
:10202000E6FFE1CFD9FF020EE1268DD8200E010197
:10203000E76E0019E8AE02D0E73402D0E750005D49
:1020400003E36D50020B01E074D00001E15111E097
:10205000E0510EE10001E6510BE19C0EE66E240E0C
:10206000E66EACEC0EF0E552E5520001010EE06FB9
:1020700001D0E06B0001E6515AE1400EE66EA00E81
:10208000E66E000EE66EEDEC0DF0E552E552E5521F
:10209000DF6EDF504CE0010EDB6ADF50F36E010EA5
:1020A000DBCFF4FFF350F45C37E2010EDB50EA6A59
:1020B000A00FE96E000EEA22EF500A0A16E0070AA6
:1020C00014E0010EDB50EA6AA00FE96E000EEA226E
:1020D000EF28E66E010EDB50EA6A600FE96E000E33
:1020E000EA22E552E750EF6E14D0010EDB50EA6AA7
:1020F000A00FE96E000EEA22EF50E66E010EDB50F3
:10210000EA6A600FE96E000EEA22E552E750EF6ED0
:1021100000D0010EDB2AC1D7DFCFE6FF600EE66EEE
:10212000000EE66E4EEC0EF0E552E552E552F2EC92
:102130000EF0020EE15C02E2E16AE552E16EE55268
:10214000E7CFD9FF12000001FE51FF1104E1100E8C
:10215000FE6F270EFF6FFE07000EFF5B6DA20AD019
:10216000FE51FF1106E18B708BA002D08B8201D053
:102170008B922ED00101005103E18B908B9228D0DD
:10218000000503E18B808B8223D0020E005D03E10A
:102190008B808B921DD0040E005D03E18B908B82AF
:1021A00017D0100E005D07E10001FE51FF1102E1A2
:1021B0008B708B920DD0200E005D0AE10001FE5164
:1021C000FF1106E18B708BA002D08B9201D08B8225
:1021D0001200120012008250040B01E0010E0001F7
:1021E000E15D0DE1E25102E0E20708D08250040B0C
:1021F000040A01E0010EE16F640EE26F03D0E251C8
:1022000001E0E2071200120068EF0DF01200B9EFD2
:102210000DF06D840001080EE36F070EE46FE30715
:10222000000EE45BE351E411FAE16D941200D9CFA2
:10223000E6FFE1CFD9FFFD0EDBCF06F0FE0EDBCFD0
:1022400007F0720E061801E1075033E0E86806183F
:1022500002E17F0E07182BE0740E061801E107500B
:1022600024E0750E061801E107501DE0730E0618F4
:1022700001E1075016E0030E061801E107500FE0D8
:10228000020E061801E1075008E0010E061801E1F0
:10229000075001E010D0BBDF0FD0B8DF0DD0B4DFA6
:1022A0000BD099DF09D095DF07D094DF05D0ABDFE5
:1022B00003D0000001D000D0010E00D0E552E7CFDE
:0422C000D9FF120030
:0C22C4001201000202000008D8040A0009
:1022D00000010102000109024300020100C03209AD
:1022E0000400000102020100052400100104240280
:1022F00002052406000105240100010705820308E8
:10230000000209040100020A000000070503024060
:102310000000070583024000000403090434034D54
:10232000006900630072006F00630068006900705C
:1023300000200054006500630068006E006F006CB0
:10234000006F0067007900200049006E0063002ED6
:102350000034034300440043002000520053002D8A
:1023600000320033003200200045006D0075006C23
:10237000006100740069006F006E00200044006579
:0D238000006D006F00D62219231D2351238C
:02238E002A0E15
:10239000F66E080EF76E000EF86E01010900F5509A
:1023A0003F6F0900F550406F03E13F6701D03DD01A
:1023B0000900F5503A6F0900F5503B6F0900F550E0
:1023C0003C6F09000900F550E96E0900F550EA6E0E
:1023D000090009000900F5503D6F0900F5503E6FF6
:1023E00009000900F6CF41F1F7CF42F1F8CF43F1F0
:1023F0003AC1F6FF3BC1F7FF3CC1F8FF01013D5375
:1024000002E13E5307E00900F550EE6E3D07F8E2A9
:102410003E07F9D741C1F6FF42C1F7FF43C1F8FFBC
:0C24200001013F07000E405BBFD7120017
:04242C00FE0EE3CFEE
:10243000E9FFFF0EE3CFEAFFE9CFF3FFEACFF4FFB6
:10244000FB0EE35003E1FC0EE35009E0FB0EE30654
:1024500002E2FC0EE306FD0EE350EE6EF1D7120031
:10246000000EF36E00EE00F0080E01D81200EA60D4
:1024700002D0EE6AFCD7F350E9601200EE6AFCD796
:1024800013EE00F023EE00F0F86A0A9CC7EC11F09E
:0C24900059EC12F0FAEC0FF0FBD7120030
:04249C00427574749D
:1024A0006F6E2050726573736564202D2D200D0AA8
:0124B000002B
:0224B200120016
:0224B400000026
:00000001FF
